:03000000020329CF
:0C032900787FE4F6D8FD75810D020370AA
:0F048F00010A00010C00010D00010814010914FD
:10041300D3EF9400EE940040147D727C00ED1D70C8
:0D042300011CED4C70F7EF1F70E61E80E32A
:0104300022A9
:10047C00758900438901758CFF758AA4D2A9D28C29
:03048C00D2AF22CA
:03000B000203B538
:1003B500C0E0C0D0C28C758CFF758AA4E50AD395C0
:1003C5000B5004D2B78002C2B7050AE50AC394C828
:1003D5004003750A00E50CD395085004D2908002BD
:1003E500C290050CE50CC394C84003750C00E50DDF
:1003F500D395095004D2958002C295050DE50DC32C
:0E04050094C84003750D00D28CD0D0D0E032E8
:0D049F008F088D09D291C293C292D294228F
:0D04AC008F088D09D291D293C292C2942282
:0D04B9008F088D09C291C293D292D2942275
:0D04C6008F088D09C291D293D292C2942268
:0D04D3008F088D09D291C293D292C294225B
:10044F00AB07AA06A905A804E4FFFEFD7C41120034
:07045F00111201448F0B2272
:100431008F828E83AF05AE04AD03AC0212049FAE72
:0E04410083AF82AD07AC06EC12010B02044F34
:100466007F007E007D007C0012044F7D0A7C007FA9
:060476000A7E0002049F53
:10028A0020801730811430821130830E30840B7D28
:10029A00327C007FC87E000204AC308014208111B9
:1002AA0030820E30830B3084087D057C007FC88045
:1002BA006830801430811120820E30830B3084081C
:1002CA007D787C007F7880513080143081113082B3
:1002DA000E20830B3084087DC87C007F05803A306D
:1002EA00801730811430821130830E20840B7DC830
:1002FA007C007F327E000204B930801730811430CE
:10030A00821130830E30840B7D327C007F327E0076
:0F031A000204C67D647C007F647E0012049F2273
:1001D30020801A30811730821430831130840E7BD3
:1001E300057A007DC87C007FFE7EFF807130801A17
:1001F30020811730821430831130840E7B057A00FE
:100203007DC87C0074FFFFFE805430801930811656
:1002130020821330831030840D7BAA7A007DAA7C60
:1002230000E4FFFE803830801A30811730821420BA
:10023300831130840E7BC87A007D057C007F017EAC
:1002430000801B30801B30811830821530831220D0
:10025300840F7BC87A007D057C007F027E00020448
:100263003130801730811430821130830E30840B8B
:100273007D327C007F327E000204C67D647C007F79
:07028300647E0012049F22BB
:0B04E00012047C12046612028A80FBEA
:10000E000201B0E86480F8E933E83360110460F06F
:10001E00ED33EC337009E8FCE9FDEAFEEBFF220458
:10002E0060DED3EB9FEA9EE99DE8C2E78CF0C2F753
:10003E0095F0400CE8CCF8E9CDF9EACEFAEBCFFB1F
:10004E0012017B85D0F05804700320D5B3E80470FC
:10005E00075002B2D50201BA92D5EC0460F7E4CC97
:10006E00C0E0C398F8603B94186008400DD0E0FBE8
:10007E00020192E4FBFAC9FC8028E830E406E4C9E8
:10008E00FBE4CAFCE830E305E4C9CACBFCE854073C
:10009E006010F8C3E913F9EA13FAEB13FBEC13FC47
:1000AE00D8F130F52FC3E49CFCEF9BFFEE9AFEEDEA
:1000BE0099FDD0E0FBEF4E4D4C701222DB03020196
:1000CE00B7EC2CFCEF33FFEE33FEED33FDED30E7F6
:1000DE00EB020192EF2BFFEE3AFEED39FDD0E0FB85
:1000EE0050130BBB00030201BAED13FDEE13FEEF2E
:0800FE0013FFEC13FC02019258
:1001060075F020800E75F010800575F0087D007E74
:10011600007F003392D530D5031201C5EC33401071
:10012600EF33FFEE33FEED33FDEC33FCD5F0ED227D
:0E013600E5F0247EA2D513CC92E7CDCEFF22B9
:10014400EDD2E7CD33EC3392D524814006E4FFFEB3
:10015400FDFC22FCE4CFCECDCC24E0501174FF8012
:10016400EDC3CC13CCCD13CDCE13CECF13CF0470AF
:07017400F030D5DE0201C5E9
:10017B00E9D2E7C933E833F892D5EDD2E7CD33ECCA
:07018B0033FC5002B2D52243
:10019200EC30E7100FBF000C0EBE00080DBD0004CE
:1001A2000BEB6014A2D5EB13FCED92E7FD2274FF7A
:1001B200FCFDFEFF22E480F8A2D574FF13FC7D80D3
:0301C200E480EFE7
:100335000204E0E493A3F8E493A34003F68001F2FA
:1003450008DFF48029E493A3F85407240CC8C333C9
:10035500C4540F4420C8834004F456800146F6DF98
:10036500E4800B010204081020408090048FE47E95
:10037500019360BCA3FF543F30E509541FFEE4938D
:10038500A360010ECF54C025E060A840B8E493A354
:10039500FAE493A3F8E493A3C8C582C8CAC583CA7F
:1003A500F0A3C8C582C8CAC583CADFE9DEE780BE37
:01049E00005D
:0E01C500C3E49FFFE49EFEE49DFDE49CFC224B
:00000001FF
